:0B1D7D00D3EF9400EE648094804014CB
:101D880000752C02752DC7D52DFDD52CFAEF1F70C7
:021D9800E41E47
:031D9A0080E122C3
:041EB6007F01DFFECB
:011EBA002205
:1000030000000000000000000000000000000000ED
:1000130000000000000000000000000000000000DD
:1000230000000000000000000000000000000000CD
:100033000000000F80380FFE380F803800000000EA
:1000430000000000000000000000000000000100AC
:10005300000600000C00003800003100000600001C
:100063000C00003800003000000000000000000019
:1000730061800067F807F98000618000618000619A
:10008300800061800067F807F9800061800000004C
:1000930000000000000001C0E003E0F006300804A7
:1000A30018081FFFFE040E080787F00381E0000015
:1000B3000000000001F000060C00040408060C70A8
:1000C30001F9C0000E00003BE000EC18070808042B
:1000D3000C180003E00000000001E00007F003F843
:1000E30018041C0804170807E1D003C0E00023B07C
:1000F300003C080020080000100000000000000180
:1001030000003100003200001C000000000000006D
:1001130000000000000000000000000000000000DC
:1001230000000000000000000000000000000000CC
:100133007F0001FFC00780F00C00181000042000AE
:10014300020000000000002000021000040C001850
:100153000780F001FFC0007F0000000000000000E6
:1001630000000000000000000000000042000066E4
:1001730000006600003C0000180003FFC0001800E8
:10018300003C000066000066000042000000000022
:10019300080000080000080000080000080001FF34
:1001A300C000080000080000080000080000080064
:1001B30000000000000100003100003200001C00BC
:1001C300000000000000000000000000000000002C
:1001D3000000000000000000080000080000080004
:1001E30000080000080000080000080000080000E4
:1001F30008000008000000000000000000000000EC
:100203003800003800003800000000000000000043
:1002130000000000000000000000000000000000DB
:10022300000600001C000070000180000E00003872
:100233000000C0000700001C0000300000000000A8
:10024300000000007F8001FFE003807006001804B7
:10025300000804000806001803807001FFE0007F17
:1002630080000000000000000000010008010008F9
:1002730001000803FFF807FFF8000008000008006A
:10028300000800000000000000000001C03802C0A8
:1002930058040098040118040218040418061C18D2
:1002A30003F81801E0F8000000000000000000015E
:1002B300C0E003C0F0040008040808040808061896
:1002C3000803F41801E7F00001E00000000000005B
:1002D300000000000300000D000011000061000099
:1002E300810803010807FFF80FFFF8000108000168
:1002F300080000000000000000E007FCD00608082A
:10030300061008061008061008061838060FF0062F
:1003130007C0000000000000000000003F8001FF54
:10032300E0038430020818041008041008041008BD
:10033300071810030FF00007C000000000000000C2
:10034300000003C0000700000600000600F80607CF
:10035300F806180006E00007000006000000000091
:1003630000000001E1E003F7F0063410041808046C
:100373001808040C08040C0806161803F3F001C14E
:10038300E000000000000000F80003FC3003063822
:100393000402080402080402080404100308F0011C
:1003A300FFC0007F0000000000000000000000000C
:1003B3000000000000000000703800703800703842
:1003C300000000000000000000000000A1E30000A6
:1003D300000000000000000600000900001080007B
:1003E3001080001100000E0000000000000000005B
:1003F30000000000000000000000000000000000FA
:1004030000000000000000000000000000000000E9
:10041300000000000000B6AB000000001000003038
:10042300000020103FFFF800400000C000008000E3
:10043300018C000308000208200FFFF004080000ED
:10044300880000C88001884003083006081808089F
:100453000C10080C20C80000380000100000000039
:10046300CEF70000000000000000083FFFFC004240
:10047300000042000042000042001FFFF80842183B
:1004830008421808421808421808C21808821808B7
:1004930082180903F80A00180C00180800180FFF47
:1004A300F8080018180010000000C4CF0000000076
:1004B30010000018000018087FFFFC001000001057
:1004C300000010000FFFF809021008C3100866109F
:1004D3000844100BFF900810100810100BFFD008F1
:1004E3001010081010081010081190081070000068
:1004F30020000000B1B100000000000000840000F3
:10050300C2000082000082000082000082083F8255
:100513001C0082300082C000830000820000820041
:100523000082000082000082000382041C820430E7
:0E053300820400C20E00C3FC00800000000025
:0B1DB9000209FFFF020B0000010818E8
:101DD3007E80EE60135F6004D2958002C295C29745
:081DE300D297EEC313FE80EA63
:011DEB0022D5
:0A1EA400C292C293121DD3D2932202
:0A1E3200121EA47FD0121E3C7F0494
:0A1E3C00D292C293121DD3D293225A
:101E1D00AD07AC06C293D292AF04121DD3AF05121B
:051E2D001DD3D2932239
:081EAE00121EA4AF05021E3C48
:051EBB00AF13021EA49C
:041C71008E2B8F2CFB
:101C7500E50D24FFFBE434FFFAE50E24FFF54EE401
:101C850034FFF54DE4FDFCFFFE121C16C293D29203
:101C9500E4FDFCC3ED950DEC94005025E4FBFAC37F
:101CA500EB950EEA94005012E52BFF121DD3AF2CD5
:101CB500121DD30BBB00010A80E50DBD00010C8090
:031CC500D2D293E5
:011CC80022F9
:0F1D3500FEC3E52E9533FDE49400FCAB31AA30DC
:101D44008A458B46AB07AA068C4D8D4E121C16AFE6
:061D540046AE45021E1D13
:101E4600C2B57F147E00121D7DD2B57F147E0002BE
:021E56001D7DF0
:10159400121E467F36121EA4E4FF121E3C7F3A122E
:1015A4001EA47F05121E3C7FB2121EA47F0C121EC5
:1015B4003C121E3CE4FF121E3C7F33121E3C121EE2
:1015C4003C7FB7121EA47F35121E3C7FBB121EA4A3
:1015D4007F17121E3C7FC0121EA47F2C121E3C7F5C
:1015E400C2121EA47F01121E3C7FC3121EA47F12CE
:1015F400121E3C7FC4121EA47F20121E3C7FC61202
:101604001EA47F0F121E3C7FD0121EA47FA4121EA4
:101614003C7FA1121E3C7FE0121E327F0D121E3C45
:101624007F11121E3C7F13121E3C7F2B121E3C7F27
:101634003F121E3C7F54121E3C7F4C121E3C7F18EE
:10164400121E3C7F0D121E3C7F0B121E3C7F1F128C
:101654001E3C7F23121E3C7FE1121E327F0C121EA1
:101664003C7F11121E3C7F13121E3C7F2C121E3C29
:101674007F3F121E3C7F44121E3C7F51121E3C7F52
:101684002F121E3C7F1F121E3C121E3C0F121E3CCA
:101694007F23121E3C7F21121EA47F11121EA47FE1
:0C16A40029121EA4E4FF121BB1D2B422D4
:101C16008E478F48AF15121EA47E00E5482518EEA4
:101C26003547FF121E3CE5182548FF121E3CE518F5
:101C36002BE43AFF121E3CE5182BFF121E3CAF1791
:101C4600121EA4E5192DE43CFF121E3CE5192DFFDA
:101C5600121E3C7E00E54E2519EE354DFF121E3C48
:0B1C6600E519254EFF121E3C021EBBBC
:0B1E9900AB07AA068C4D8D4E021C16F4
:101BB10075140075152A75160075172B75120075A9
:101BC100132CEF5403F511146018146024146031C0
:101BD10024037040750DF0750EC6E4F518F519FD76
:101BE100802D750DC6750EF0E4F518F5197D608030
:101BF1001E750DF0750EC6E4F51875197A7DC08055
:101C01000E750DC6750EF075187AE4F5197DA07F75
:051C110036121EAE2298
:061886008F358D368B3713
:10188C0085363C74E02537F537E4F53BE508131352
:10189C0013541FFF7E00E50854077C0060047D0193
:1018AC0080027D00ED2FFFEC3EFEE508C313FD7CAE
:1018BC00001209AAC3E53B9FEE6480F8748098502F
:1018CC007AE5086418707475F024E537A42403F5E0
:1018DC0082E5F03400F583E582253BF582E435831F
:1018EC00F583E493F539E4F53AE53930E70EAF3595
:1018FC007E00AD367C00AB0AAA09800AE538700977
:10190C00AF35FEAD36FC121D44E53925E0F5390541
:10191C0036E536C3950E5023C3E536953CB5080D18
:10192C00853C360535E535C3950D400A22053AE56B
:0B193C003AC3940840B3053B02189822
:01194700227D
:081AC9008F5B8D5C8A5D8B5E72
:101AD100855B64EF255EF55EE4355DF55DE55C25CE
:101AE10060F560E4355FF55FAB61AA62A963120935
:101AF10064FFD3947E5045EFC39420403FE55B954E
:101B01005EE4955D400985645BE508255CF55CC391
:101B1100E55C9560E4955F5023120964FB7538011B
:101B2100AD5CAF5B121886E508C313255BF55B74EA
:0C1B3100012563F563E43562F56280ACC9
:011B3D002285
:0619D4008F2D8D2E8B2FDC
:1019DA007E007C007A00E530754D00F54E121C162B
:1019EA00E4FBC3E530952EFFE49400CF2401CF3405
:1019FA0000FEEBC39FEE6480F8748098502BE4FAE3
:101A0A00C3E52F952DFFE49400CF2401CF3400FEC7
:101A1A00EAC39FEE6480F8748098500AAF32AE3100
:101A2A00121E1D0A80DA0B80B9E50D24FFFBE4348F
:101A3A00FFFAE50E24FFF54EE434FFF54DE4FDFC14
:051A4A00FFFE021C1666
:0416B0008F2D8D2EBF
:1016B400E4F5328B33AF03EF25E0FFE433FEC3746C
:1016C400039FF535E49EF534E532D39533400302A8
:1016D40017A8E52D2532FFE433121D35E52D2533FA
:1016E400FFE433FEC3E52E9532121D3BE52D253371
:1016F400FFE433FEE52E2532FDE433121D3FE52DD4
:101704002532FFE433FEE52E2533FDE433121D3F7D
:10171400C3E52D9532FFE49400FEE52E2533FDE468
:1017240033121D3FC3E52D9533FFE49400FEE52EEF
:101734002532FDE433121D3FC3E52D9532FFE494B9
:1017440000121D35C3E52D9533FFE49400FEC3E577
:101754002E9532121D3B0532C3E5346480948050CB
:101764001AE53275F004A42406FFE435F0FEEF25F3
:1017740035F535EE3534F5340216CCC3E532953300
:10178400FFE49400FEEF7802C333CE33CED8F924BD
:101794000AFFE43EFEEF2535F535EE3534F5341514
:0417A400330216CC2A
:0117A800221E
:041E05008F35A90567
:101E09007F017E00AD0119ED6009AD357C00120935
:031E1900AA80F1AB
:011E1C0022A3
:081A4F008F2D8D2E8A2F8B30A4
:101A5700E4F534F532E532C395315065C3E5319588
:101A67003214FD7F0A121E05AC2FAD30CFCDCFCE7D
:101A7700CCCE1209BC7C007D0A1209BC8D33E5343B
:101A87007023E53114FFE532C39F5019E533701217
:101A9700E508C3138532F0A4252DFF7538017B2097
:101AA7008016753401E508C3138532F0A4252DFF90
:101AB700E5332430FB753801AD2E121886053280C8
:011AC700948A
:011AC80022FB
:02131A00A90721
:10131C00E4F533F534F535F536EBC39FF538E49445
:10132C0000F537EDFFE52EC39FF53AE49400F5394F
:10133C00AF017541008F42AF057543008F44D3E573
:10134C00389400E537648094804008753D00753E04
:10135C0001801DE53845377006F53DF53E8011746A
:10136C00FFF53DF53EC3E49538F538E49537F53790
:10137C00D3E53A9400E539648094804008753F00C9
:10138C00754001801DE53A45397006F53FF5408002
:10139C001174FFF53FF540C3E4953AF53AE49539FD
:1013AC00F539D3E538953AE5396480F8E53764804A
:1013BC0098400885373B85383C800685393B853A13
:1013CC003CE4F531F532E53C2401FFE4353BFED33A
:1013DC00E5329FE5319E400302146BAB30AA2FAD72
:1013EC0044AC43AF42AE41121D44E5382534F534CC
:1013FC00E5373533F533E53A2536F536E539353508
:10140C00F535D3E534953CE53B6480F8E5336480F1
:10141C00984018E534953CF534E533953BF533E5C8
:10142C003E2542F542E53D3541F541D3E536953C47
:10143C00E53B6480F8E5356480984018E536953CCA
:10144C00F536E535953BF535E5402544F544E53F66
:0F145C003543F5430532E532700205310213D2F4
:01146B00225E
:0A17A9008F2D8D2E8B2F8A30893191
:1017B300AB2FAA30A9311209647003021885AF2D2B
:1017C3007E00AD2E7C00E52D2417FBE433FAE52ED5
:1017D3002417F54EE433F54D121C16E4F532AB2F06
:1017E300AA30A931120964FF75F04AE532A424CF67
:1017F300F582E5F03403F583E4936F70659000019F
:1018030012097DFF75F04AE532A424D0F582E5F094
:101813003403F583E4936F7049FB75F04AE532A412
:1018230024D1F582E5F03403F583E5822BF582E4D8
:101833003583F583E493F582758300E4FAE582301A
:10184300E706AF0AAE098004AF0CAE0B121E1DE50E
:101853008225E0F582E58333F5830ABA08DF0BBB03
:1018630048B80532E532C3940550030217E1740208
:101873002531F531E43530F5307418252DF52D0279
:0218830017B399
:011885002240
:0F1E5800D291D290121EB6C291121EB6C2902223
:0C1E7500C291D290121EB6D291021EB68D
:0E1E6700A2009291D290121EB6C290021EB638
:0C1E8100D290121EB6A291C290021EB6B2
:021D5A008F2DCB
:101D5C00E4F52EE52D25E0F52D9291D290121EB6CC
:101D6C00C290121EB6052EE52EC3940840E5021E45
:011D7C0081E5
:101D0C00E4F52DD291F52CE52D25E0F52DD2901290
:101D1C001EB6A291E433422DC290121EB6052CE5DC
:081D2C002CC3940840E1AF2D27
:011D3400228C
:101DEC008F2B8D2C121E587F1A121D5AAF2B121DC1
:091DFC005AAF2C121D5A021E758B
:101CC900121E587F1A121D5AE4FF121D5A121E586D
:101CD9007F1B121D5AE4F52B121D0C7453252BF88A
:101CE900A607E52BB40504D2008002C200121E67C4
:101CF900052BE52BC3940640DF121E757F057E0078
:031D0900021D7D3B
:101D9D007D0D7F09121DEC7D017F0B121DEC7D4029
:0C1DAD007F20121DEC7D017F21021DEC47
:100E0E00A1E3B1B100A1E3B6ABB1B100A1E3B6ABC2
:100E1E0000A1E3B6ABC4CF00A1E3C4CF00A1E3CEE3
:100E2E00F7C4CF00A1E3CEF700A1E3CEF7B1B10036
:100E3E0078197719751974197219711970196E1A42
:100E4E006D1A6B1A6A1A691A671B661B651B631C7F
:100E5E00621C611C5F1D5E1D5D1E5B1E5A1F591FAD
:100E6E0057205620552154225222512350244F24CC
:100E7E004E254C264B274A2749284829472A462BD8
:100E8E00452C442D422E412E402F3F303E313D32D7
:100E9E003D333C353B363A3739383839373A363BBD
:100EAE00363C353D343F3340334132423143314598
:100EBE0030462F472F482E4A2E4B2D4C2D4E2C4F61
:100ECE002C502B522B532B542A562A572A58295A18
:100EDE00295B295C295E295F2861286228632865C1
:100EEE00286628682869286A286C286D286F28705B
:100EFE002871297329742976297729782A7A2A7BE9
:100F0E002A7C2B7E2B7F2B802C822C832D842D866E
:100F1E002E872E882F8A2F8B308C318D318F3290E9
:100F2E003391339234933595369636973798389960
:100F3E00399A3A9B3B9C3C9D3D9F3DA03EA13FA2D2
:100F4E0040A341A442A444A545A646A747A848A944
:100F5E0049AA4AAB4BAB4CAC4EAD4FAE50AE51AFB7
:100F6E0052B054B055B156B257B259B35AB35BB42E
:100F7E005DB45EB55FB561B662B663B665B766B7AA
:100F8E0067B769B86AB86BB86DB86EB870B971B931
:100F9E0072B974B975B977B978B979B97BB97CB9C1
:100FAE007EB97FB980B982B883B885B886B887B85C
:100FBE0089B78AB78BB78DB68EB68FB691B592B507
:100FCE0093B495B496B397B399B29AB29BB19CB0C1
:100FDE009EB09FAFA0AEA1AEA2ADA4ACA5ABA6AB8A
:100FEE00A7AAA8A9A9A8AAA7ABA6ACA5AEA4AFA468
:100FFE00B0A3B1A2B2A1B3A0B39FB49DB59CB69B52
:10100E00B79AB899B998BA97BA96BB95BC93BD9250
:10101E00BD91BE90BF8FBF8DC08CC18BC18AC2885F
:10102E00C287C386C384C483C482C580C57FC57E80
:10103E00C67CC67BC67AC778C777C776C774C773B0
:10104E00C871C870C86FC86DC86CC86AC869C868EE
:10105E00C866C865C863C862C861C75FC75EC75C3B
:10106E00C75BC75AC658C657C656C554C553C55290
:10107E00C450C44FC34EC34CC24BC24AC148C147F1
:10108E00C046BF45BF43BE42BD41BD40BC3FBB3D58
:10109E00BA3CBA3BB93AB839B738B637B536B435C3
:1010AE00B333B332B231B130B02FAF2EAE2EAC2D32
:1010BE00AB2CAA2BA92AA829A728A627A527A426A0
:1010CE00A225A124A0249F239E229C229B219A200C
:1010DE009920971F961F951E931E921D911D8F1C72
:1010EE008E1C8D1C8B1B8A1B891B871A861A851AD0
:1010FE00831A821A80197F197E197C197B19791926
:0E1DC400085300000000000000000251FFF66E
:040A75008E2B8F2C09
:100A7900753075E4F531F5327BB87D5D7F4012192B
:100A8900D4AC2BAD2CEC1207BDE4FBFA79B4784158
:100A990012073F60025015AC2BAD2CEC1207BD7B41
:100AA900007AC079A8784312073F5042C3E52C94D5
:100AB90064E52B64809480401A753103AB2CAA2B12
:100AC9007D5D7F4E121A4F7BFF7A0E790E7D5D7F19
:100AD900728018753102AB2CAA2B7D5D7F54121AD6
:100AE9004F7BFF7A0E790E7D5D7F6C1217A9AC2BB7
:100AF900AD2CEC1207BDE4FBFA79B4784112073F3B
:100B09005031AC2BAD2CEC1207BDE4FBFA79877898
:100B19004212073F601D401B753102AB2CAA2B7D89
:100B29005D7F48121A4F7BFF7A0E79137D5D7F60D6
:100B39001217A9AC2BAD2CEC1207BDE4FBFA79878F
:100B4900784212073F5058AC2BAD2CEC1207BDE48C
:100B5900FBFA79E1784212073F60444042C3E52C31
:100B69009464E52B64809480401A753103AB2CAAF8
:100B79002B7D5D7F4E121A4F7BFF7A0E791A7D5DB0
:100B89007F728018753102AB2CAA2B7D5D7F5412C0
:100B99001A4F7BFF7A0E791A7D5D7F6C1217A9AC0B
:100BA9002BAD2CEC1207BDE4FBFA79E17842120770
:100BB9003F5032AC2BAD2CEC1207BD7B007A80790B
:100BC9001D784312073F601D401B753103AB2CAAEA
:100BD9002B7D5D7F42121A4F7BFF7A0E791F7D5D57
:100BE9007F661217A9AC2BAD2CEC1207BD7B007ADE
:100BF90080791D784312073F5032AC2BAD2CEC1293
:100C090007BD7B007A80794A784312073F601D400F
:100C19001B753103AB2CAA2B7D5D7F4E121A4F7BBE
:100C2900FF7A0E79267D5D7F721217A9AC2BAD2C48
:100C3900EC1207BD7B007A80794A784312073F504E
:100C490032AC2BAD2CEC1207BD7B007A807977781A
:100C59004312073F601D401B753103AB2CAA2B7D46
:100C69005D7F42121A4F7BFF7A0E792B7D5D7F667D
:100C79001217A9AC2BAD2CEC1207BD7B007A807939
:100C890077784312073F5032AC2BAD2CEC1207BDDD
:100C99007B007A407992784312073F601D401B75AB
:100CA9003103AB2CAA2B7D5D7F4E121A4F7BFF7A45
:100CB9000E79327D5D7F721217A9AC2BAD2CEC1227
:100CC90007BD7B007A407992784312073F5032ACD6
:100CD9002BAD2CEC1207BD7B007AC079A8784312A2
:100CE900073F601D401B753103AB2CAA2B7D5D7F2F
:100CF90042121A4F7BFF7A0E79377D5D7F66121794
:100D0900A9E54F24FBFFE55024FBFDE54F2405FB36
:100D1900E5502405F530E4F531F5321219D4AE2B3E
:100D2900AF2C7C017D68120A11ED25E0FFEC33FE42
:100D3900743E2FF582740E3EF583E493F54F743FAC
:100D49002FF582740E3EF583E493F550AF4F7E0084
:100D5900FD7C007B007AF8121D44E54F24FFFFE477
:100D690034FFFEE55024FFFDE434FFFC7B007AF8F4
:100D7900121D44E54F2401FFE433FEE55024FFFD35
:100D8900E434FFFC7B007AF8121D44E54F24FFFF91
:100D9900E434FFFEE5502401FDE433FC7B007AF8DE
:100DA900121D44E54F2401FFE433FEE5502401FD03
:100DB900E433FC7B007AF8121D447530F875310074
:100DC9007B01AD50AF4F1216B07530F87531007B0D
:100DD90002AD50AF4F1216B07530F87531007B0374
:100DE900AD50AF4F1216B07530F87531007B04ADB8
:100DF90050AF4F1216B07530F87531007B05AD5004
:050E0900AF4F0216B01E
:10110E00E4F521F522F523F524F525F526F52AF546
:10111E0029F528F527121594E4FFFE121C71121DF5
:10112E009D74FFF530F5317B5A7D697F781216B0CC
:10113E0074FFF530F5317B597D697F781216B075E5
:10114E002E0374FFF52FF5307B717D0F7F78121310
:10115E001A752E0374FFF52FF5307B7F7D0F7F7888
:10116E0012131A752E0374FFF52FF5307B7F7D0356
:10117E007F7112131A752E0474FFF52FF5307B7FD5
:10118E007D047F7112131A752E0574FFF52FF5303D
:10119E007B7E7D057F7212131A752E0674FFF52F56
:1011AE00F5307B7E7D067F7212131A752E0774FF43
:1011BE00F52FF5307B7D7D077F7312131A752E0880
:1011CE0074FFF52FF5307B7D7D087F7312131A7532
:1011DE002E0974FFF52FF5307B7C7D097F74121379
:1011EE001A752E0A74FFF52FF5307B7C7D0A7F74FD
:1011FE0012131A752E0B74FFF52FF5307B7B7D0BBA
:10120E007F7512131A752E0C74FFF52FF5307B7A3D
:10121E007D0C7F7612131A752E0D74FFF52FF53097
:10122E007B7A7D0D7F7612131A752E0E74FFF52FB5
:10123E00F5307B797D0E7F7712131A74FFFBFA7DE2
:10124E000F7C007F787E00121D44121CC9E554F5F8
:10125E0021E553F522E556F523E555F524D3E52290
:10126E0094FFE521648094FF40080522E522700278
:10127E000521D3E52494FFE523648094FF400805FF
:10128E0024E52470020523AC23AD24EC1207BDC067
:10129E0004C005C006C007AC21AD22EC1207BD8FFD
:1012AE00328E318D308C2FD007D006D005D004125F
:1012BE001B3E7BE07A2E79657842120639E4FBFA02
:1012CE00793478431205488F2A8E298D288C27125F
:1012DE0007F6C3EF9552FFEE9551FE121E8DD3EF1A
:1012EE009402EE648094805003021258AF2AAE2905
:1012FE00AD28AC271207F6120A75AF2AAE29AD2813
:0C130E00AC271207F68E518F52021258C5
:10054100020862E86480F8E933E83360110460F07E
:10055100ED33EC337009E8FCE9FDEAFEEBFF220420
:1005610060DED3EB9FEA9EE99DE8C2E78CF0C2F71B
:1005710095F0400CE8CCF8E9CDF9EACEFAEBCFFBE7
:1005810012082D85D0F05804700320D5B3E804700B
:10059100075002B2D502086C92D5EC0460F7E4CCA6
:1005A100C0E0C398F8603B94186008400DD0E0FBB0
:1005B100020844E4FBFAC9FC8028E830E406E4C9F7
:1005C100FBE4CAFCE830E305E4C9CACBFCE8540704
:1005D1006010F8C3E913F9EA13FAEB13FBEC13FC0F
:1005E100D8F130F52FC3E49CFCEF9BFFEE9AFEEDB2
:1005F10099FDD0E0FBEF4E4D4C701222DB03020857
:1006010069EC2CFCEF33FFEE33FEED33FDED30E70B
:10061100EB020844EF2BFFEE3AFEED39FDD0E0FB93
:1006210050130BBB000302086CED13FDEE13FEEF3C
:0806310013FFEC13FC02084466
:10063900EC4D6011E8497017ED33EC3304600DE4BB
:10064900FCFFFEFD22E933E8330470F80208621268
:10065900082D58046009E4CC248150062850090269
:10066900086C284003020869C0E0EB4A7044B9806D
:1006790006D0E0FB020858EF4E701CBD8008EBFF66
:10068900EAFEE9FD80EBE98DF0A4FEE5F002072220
:10069900E9CDF9EAFEEBFFEF89F0A4FCE5F0CE899C
:1006A900F0A42EFFE435F0CD89F0A42DFEE435F059
:1006B9008067EF4E7005BD80D780C3EF8BF0A4AC87
:1006C900F0EE8BF0A42CFCE435F0F8EF8AF0A42CC2
:1006D900E5F038FCE433CB8DF0A42CFCE5F03BF8D5
:1006E900EE8AF0A42CFCE5F038F8E433CF89F0A4C5
:1006F9002CFCE5F038CF3400CE89F0A42FFFE5F0CB
:100709003EFEE433C98DF0A42EFEE5F039CD8AF022
:10071900A42FFFE5F03EFEE43DFD33D0E0FB50079A
:100729000BBB000F02086CEC2CFCEF33FFEE33FE21
:06073900ED33FD0208444F
:10073F0074F8CC6480CCC86480C8F58204604FC361
:10074F00EB9FF5F0EA9E42F0E99D42F0E89C45F000
:10075F00603C501DE5825FFFE582D313CB5BCBF48A
:10076F002B5582FB50280ABA002409B900200880B3
:10077F001DE5825BFBE582D313CF5FCFF4C3132F4D
:10078F005582FF50090EBE00050DBD00010CC3EBD5
:10079F009FF5F0EA9E42F0E99D42F0E89C45F0603B
:0907AF0007CC4820E701B3EC225D
:1007B80075F020800E75F010800575F0087D007EBC
:1007C800007F003392D530D503120A47EC3340102E
:1007D800EF33FFEE33FEED33FDEC33FCD5F0ED22C5
:0E07E800E5F0247EA2D513CC92E7CDCEFF2201
:1007F600EDD2E7CD33EC3392D524814006E4FFFEFB
:10080600FDFC22FCE4CFCECDCC24E0501174FF8059
:10081600EDC3CC13CCCD13CDCE13CECF13CF0470F6
:07082600F030D5DE020A47A5
:101B3E008F2E8E2D8D2C8C2BAB32AA31A930A82F47
:101B4E0012087A12148C8F2E8E2D8D2C8C2BE52F45
:101B5E0030E747ECC0E0EDC0E0EEC0E0EFC0E0E4FF
:101B6E00FFFEFDFCAB2EAA2DA92CA82B12073F7B46
:101B7E00DB600250087A0F7949784080067A0F7937
:101B8E004978C0D0E0FFD0E0FED0E0FDD0E0FC12FE
:101B9E0005488F2E8E2D8D2C8C2BAF2EAE2DAD2C71
:031BAE00AC2B223B
:10082D00E9D2E7C933E833F892D5EDD2E7CD33EC11
:07083D0033FC5002B2D5228A
:10084400EC30E7100FBF000C0EBE00080DBD000415
:100854000BEB6014A2D5EB13FCED92E7FD2274FFC1
:10086400FCFDFEFF22E480F8A2D574FF13FC7D801A
:03087400E480EF2E
:1008770002086CEC5D046005E85904700302086225
:1008870012082D580460F6EC4860F2EC7004FDFE87
:10089700FF22C860DB2481C85009C3986002500654
:1008A7000208699850CAF582E9294B4A7005AB825C
:1008B70002085875F0007C1A7880C3EF9BEE9AED1A
:1008C70099400DC3EF9BFFEE9AFEED99FDE842F0CC
:1008D700DC23ACF0D0E0FFD0E0FED0E0FDAB82201F
:1008E700E7101BEB60BAEC2CFCEF33FFEE33FEEDA9
:1008F70033FD020844E803F830E705C0F075F0005F
:10090700EF2FFFEE33FEED33FD40B830E7C280AA8C
:10146C00BE1249253E4CCCCDBEAAAAAB3F80000093
:10147C003E7ADBB03EED63383F24BC7D3F490FDB49
:10148C00ED33ECC2E7CC339200B4FF13ED547F6024
:10149C00030208627FDB7E0F7DC97C3F021587C289
:1014AC0001C3947F401E7007EDD2E794904015EF76
:1014BC00FBEEFAEDF9ECF87F007E007D807C3F12AC
:1014CC00087AD201ED33EC33248430E705E4C0E034
:1014DC00806D04FAEDD2E754F0C333DAFD540734CF
:1014EC00002323C0E0CCC0E0F8EDC0E0F9EEC0E092
:1014FC00FAEFC0E0FBE41207C2EC24FEFC8C338D47
:10150C00348E358F361206397B007A007980783F1D
:10151C00120548ECC533B2E7FCEDC534FDEEC5351C
:10152C00FEEFC536FFD0E0FBD0E0FAD0E0F9D0E01A
:10153C00F8120548A833A934AA35AB3612087A8CB0
:10154C00338D348E358F3690146C7403120917A8B2
:10155C0033A934AA35AB36120639D0E0600F2478A3
:10156C00F582E43414F583120A6512054830010B38
:10157C007BDB7A0F79C978BF120548ED33EC336009
:08158C0006ECA20092E7FC222C
:10091700C0E0EFFBEEFAEDF9ECF8120639D0E0F59E
:10092700F0EFFBEEFAEDF9ECF8120A55A3A3A3A337
:10093700E8C0E0E9C0E0EAC0E0EBC0E0C0F01206C2
:1009470039120A65A3A3A3A3120548D0F0D0E0FB90
:0D095700D0E0FAD0E0F9D0E0F8D5F0D422DD
:030000000219489A
:0C194800787FE4F6D8FD75816402198FE9
:10096400BB010689828A83E0225002E722BBFE0291
:09097400E32289828A83E49322C4
:10097D00BB010CE58229F582E5833AF583E022502F
:10098D0006E92582F8E622BBFE06E92582F8E22279
:0D099D00E58229F582E5833AF583E4932293
:1009AA00EF8DF0A4A8F0CF8CF0A428CE8DF0A42E61
:0209BA00FE221B
:1009BC00BC000BBE0029EF8DF084FFADF022E4CC1F
:1009CC00F875F008EF2FFFEE33FEEC33FCEE9DECE8
:1009DC00984005FCEE9DFE0FD5F0E9E4CEFD22ED2E
:1009EC00F8F5F0EE8420D21CFEADF075F008EF2F78
:1009FC00FFED33FD4007985006D5F0F222C398FD69
:050A0C000FD5F0EA2205
:100A1100C2D5EC30E709B2D5E4C39DFDE49CFCEE00
:100A210030E715B2D5E4C39FFFE49EFE1209BCC3B3
:100A3100E49DFDE49CFC80031209BC30D507C3E4AE
:060A41009FFFE49EFE226F
:0E0A4700C3E49FFFE49EFEE49DFDE49CFC22C0
:100A5500E493FC740193FD740293FE740393FF22E7
:100A6500E493F8740193F9740293FA740393FB22E7
:0C1E8D00EE30E707C3E49FFFE49EFE2256
:1019540002110EE493A3F8E493A34003F68001F28A
:1019640008DFF48029E493A3F85407240CC8C33394
:10197400C4540F4420C8834004F456800146F6DF63
:10198400E4800B0102040810204080901DB9E47E1D
:10199400019360BCA3FF543F30E509541FFEE49358
:1019A400A360010ECF54C025E060A840B8E493A31F
:1019B400FAE493A3F8E493A3C8C582C8CAC583CA4A
:1019C400F0A3C8C582C8CAC583CADFE9DEE780BE02
:011DD2000010
:00000001FF
