:10197400EF4E60157D087C07ED1DAA0470011C4A1A
:0919840070F6EF1F70EA1E80E707
:01198D002237
:041A34007F01DFFE51
:011A3800228B
:10057A00000000007F8001FFE0038070060018047D
:10058A00000804000806001803807001FFE0007FDD
:10059A0080000000000000000000010008010008BF
:1005AA0001000803FFF807FFF80000080000080030
:1005BA00000800000000000000000001C03802C06E
:1005CA0058040098040118040218040418061C1898
:1005DA0003F81801E0F80000000000000000000124
:1005EA00C0E003C0F004000804080804080806185C
:1005FA000803F41801E7F00001E000000000000021
:10060A00000000000300000D00001100006100005E
:10061A00810803010807FFF80FFFF800010800012D
:10062A00080000000000000000E007FCD0060808EF
:10063A00061008061008061008061838060FF006F5
:10064A0007C0000000000000000000003F8001FF1A
:10065A00E003843002081804100804100804100883
:10066A00071810030FF00007C00000000000000088
:10067A00000003C0000700000600000600F8060795
:10068A00F806180006E00007000006000000000057
:10069A0000000001E1E003F7F00634100418080432
:1006AA001808040C08040C0806161803F3F001C114
:1006BA00E000000000000000F80003FC30030638E8
:1006CA000402080402080402080404100308F001E2
:1006DA00FFC0007F00000000A1E30000000000004E
:1006EA0000000006000009000010800010800011C0
:1006FA0000000E00000000000000000000000000E2
:10070A0000000000000000000000000000000000DF
:10071A0000000000000000000000000000000000CF
:10072A000000B6AB000000001000003000002010EE
:10073A003FFFF800400000C000008000018C000369
:10074A0008000208200FFFF004080000880000C813
:10075A008001884003083006081808080C10080CA5
:10076A0020C800003800001000000000CEF700008A
:10077A00000000000000083FFFFC004200004200A9
:10078A000042000042001FFFF808421808421808F9
:10079A00421808421808C218088218088218090361
:1007AA00F80A00180C00180800180FFFF8080018BB
:1007BA00180010000000C4CF00000000100000184C
:1007CA00000018087FFFFC00100000100000100055
:1007DA000FFFF809021008C3100866100844100B2E
:1007EA00FF900810100810100BFFD0081010081006
:1007FA001008101008119008107000002000000066
:10080A00B1B100000000000000840000C2000082B4
:10081A00000082000082000082083F821C008230B1
:10082A000082C00083000082000082000082000073
:10083A0082000082000382041C820430820400C207
:0A084A000E00C3FC00800000000057
:0B19A8008201FFFF8203000081001895
:10134200120FF87F451218A57F091218A57F0812FF
:1013520018A57F080218A51218A57F701218A57F7C
:10136200700218A5120FF87FFF0218A5EEF208EF1F
:10137200F208ECF2ED08F208EAF208EBF222780544
:1013820074F0F208F2E47810F208227F721218A5C3
:101392007F361218A57F371218A57F6F0218A51283
:1013A2000FF8E4FF0218A51218A57F710218A57F95
:1013B200EF120FF87FEB120FF87F140218A57830A6
:1013C200E2FB08E2FA08E2F9020437E22401F21829
:1013D200E23400F2227F261218A57F2A0218A5FE07
:1013E2007836E22FF218E23EF2227845E583F208DF
:0E13F200E582F2227834E2FF782EE278332290
:10193A00C293E4FEC297EF30E704D2958002C295C3
:0D194A00D297EF25E0FF0EEEB408E9D2932E
:01195700226D
:080FF800C29212193AD29222B2
:0F1896001218A5E4FF1218A5E4FF1218A5E4FF2D
:1018A500C293E4FEC297EF30E704D2958002C29559
:0D18B500D297EF25E0FF0EEEB408E9D293C4
:0118C2002203
:05198E00E2FE08E2FF8B
:10199300AD07AC06C293D292ECFF12193AAF05120F
:0519A300193AD2932265
:081A2400120FF8AF050218A52E
:081A2C00780A08E2FF020FF83E
:101914007837EEF2EF1213778D828C837837E2FA00
:1019240008E2FBFFAE021213EC1218357839E2FE1E
:0619340008E2FF02199316
:1019C200C2B57F147E00121974D2B57F147E000254
:0219D200197486
:100B1E00120DADC2B5120DADD2B5120DB5D2B412C5
:100B2E000DB51213B17FFE120FF81213B17F84129E
:100B3E000FF87F401218A57F851213667F86121359
:100B4E00667F871213667F88120FF87F0A1218A528
:100B5E007F89120FF87F211218A57F8A1213A17FA9
:100B6E008B120FF87F801218A57F8C120FF87F0161
:100B7E001218A57F8D120FF87F011218A57F8E1205
:100B8E0013667F8F1213667FB61213A17F20121881
:100B9E00A57F36120FF87F081218A57F3A120FF8AC
:100BAE007F051218A57F90120FF87F0812134C7F45
:100BBE00081218A57FBD120FF87F061218A57FBC6C
:100BCE001213A17FFF120FF87F601218A57F01127A
:100BDE0018A57F041218A57FC3120FF87F131218E1
:100BEE00A57FC4120FF87F131218A57FC9120FF834
:100BFE007F221218A57FBE120FF87F111218A57F43
:100C0E00E1120FF87F101218A57F0E1218A57FDFC4
:100C1E00120FF87F211218A57F0C1218A57F021251
:100C2E0018A57FF01213421213D77FF1120FF87F1F
:100C3E004312135E12138D7FF21213421213D77FDB
:100C4E00F3120FF87F4312135E12138D7FED120F06
:100C5E00F87F1B1218A57F0B1218A57FAE120FF886
:100C6E007F771218A57FCD120FF87F631218A57F1C
:100C7E0070120FF87F071218A57F071218A57F04B0
:100C8E001218A57F0E1218A57F0F1218A57F091234
:100C9E0018A57F071213517F031218A57FE8120FB4
:100CAE00F87F341218A57F62120FF87F181218A55C
:100CBE007F0D1213A97FED1213597F181218A57FFD
:100CCE000F1213A97FEF1213597F63120FF87F18BB
:100CDE001218A57F111213A97FF11213597F181242
:100CEE0018A57F131213A97FF31213597F64120FE5
:100CFE00F87F281218A57F291218A57FF11218A5C2
:100D0E007F011218A57FF11218A07F071218A57F78
:100D1E0066120FF87F3C1218A07FCD1218A57F67C0
:100D2E001218A57F451218A57F451218A57F10121F
:100D3E0018967F671213A17F3C1218967F01121826
:100D4E00A57F541218A57F101218A57F321218A570
:100D5E007F981218A57F74120FF87F101218A57FB6
:100D6E00851218A57F8012189B7F4E1218A07F98AF
:100D7E00120FF87F3E1218A57F071218A57F3512A5
:100D8E000FF87F21120FF87F11120FF87F787E0077
:100D9E001219747F29120FF87F147E000219747FC6
:0F0DAE00787E00121974227F787E001219742249
:10183500783FEEF208EFF28D828C837F2A120FF843
:101845001812198EAE02AF031219937F2B120FF8DF
:10185500AE83AF82121993784512198E7F2C020F31
:01186500F88A
:0E19E3008D828C83AB07AA061213EC02183516
:10173B00780CE4F208742AF208E4F208742BF278BD
:10174B000AE4F208742CF2EF54037809F2146011D6
:10175B0014601614601D2403702F121380F2FD8089
:10176B0023121380F27D60801B121380747AF27D3A
:10177B00C08011780574F0F208F27810747AF2E4F4
:0A178B0008F27DA07F36121A242216
:0E1400007839EEF208EFF208EBF28D828C8361
:10140E007839E2FE08E2FF240BFBE43EFAE5822483
:10141E00177846F2E4358318F2121835E4FBE4FA35
:10142E00EB131313541FFD7C00EA75F003A42DFF7C
:10143E00EC35F0FE783CF208EFF2EB5407FDC37486
:10144E00079D08F2C3EF9424EE94005038783CE2E6
:10145E00FE08E2FF783BE275F024A4247AF582E5DB
:10146E00F03405F583E5822FF582E5833EF583E4BE
:10147E0093FF783EE2FEEFA806088002C313D8FC65
:10148E005401F98002E4F9E96004780180027803DE
:03149E0012198E92
:0E14A1000AEA640C70870BEB64186002812C61
:0114AF00221A
:0516D900782E12136ED3
:1016DE0024FFFBEA34FFFA7835E224FF7946F3184B
:1016EE00E234FF19F31218357830E2FF08E2783849
:1016FE00CFF208EFF27834E2FE08E2FFC37839E267
:10170E009F18E29E5026782EE2FE08E2FBAA06D330
:10171E007833E29B18E29A400C783612198E0BBB86
:0C172E0000010A80EA78391213CD80C94E
:01173A00228C
:07100000782EEFF208EDF27B
:10100700E47833F208EBF225E0FFE433FEC3740320
:101017009F7836F2E49E18F27834E2FD18E2FFD3A7
:101027009D400201B1782EE22FFFE433FE08E21261
:1010370010EC1210EC1211112FFFE433FE7834E29A
:10104700FD782FE212111178341210D01213F61214
:1010570010D07833E2FF782EE278341210B21213F0
:10106700F61210B27833E204F2C37835E264809462
:101077008050127833E275F004A42406FFE435F0BB
:101087001213E1011F7834E2FF18E2C39FFFE494D3
:1010970000FEEF7802C333CE33CED8F9240AFFE43B
:0A10A7003E1213E118E214F2011FDB
:1010B10022C39FFFE49400FEE2FD782FE2C39DFD71
:1010C100E49400FC7831E2FA08E2FB12191422C31D
:1010D1009FFFE49400FEE2FD782FE22DFDE433FC56
:1010E1007831E2FA08E2FB12191422C39DFDE4945F
:1010F10000FC7831E2FA08E2FB1219147834E2FFBD
:10110100782EE22FFFE433FE7833E2FD782FE222DE
:101111002DFDE433FC7831E2FA08E2FB1219147870
:0711210033E2FF782EE22209
:0918C3007839ECF208EDF2A907F6
:1018CC007F017E00783908E2FD24FFF218E2FC3437
:0F18DC00FFF2ED4C6009E9FD7C0012047D80E510
:0118EB0022DA
:05166100782E12136E4B
:10166600E47835F208F27834E2F9FF08E2FC08E2A1
:10167600FDC39FEC9400505AE9C39DFFE49CCF2420
:10168600FFFDEF34FFFC7F0A1218C37832E2FC0834
:10169600E2FDCFCDCFCECCCE12048F7C007D0A12D8
:1016A600048F7837ECF208EDF2FB7835E2FE08E2BB
:1016B600FF7C007D0C12047D782FE22FFF18E23E9E
:1016C600FE7830E2FC08E2FD12140078361213CDE3
:0216D6008094FE
:0116D80022EF
:100F1D00782EEFF208EDF208EBF208EAF208E9F2AA
:100F2D001213C07002E1F7782EE2FF7E0008E2F99D
:100F3D00FD7C00EF2417FBEE33FAE924177846F217
:100F4D00E43318F2121835E47833F27833E2FFC344
:100F5D0094054002E1E71213C0FE75F04AEFA42498
:100F6D00E2F582E5F03406F583E4936E706590004A
:100F7D0001120450FF7833E275F04AA424E3F582A0
:100F8D00E5F03406F583E4936F7048FB7833E27532
:100F9D00F04AA424E4F582E5F03406F583E5822BCE
:100FAD00F582E43583F583E493F582758300E4FAE5
:100FBD00E58230E70478018002780312198EE5820C
:100FCD0025E0F582E58333F5830AEAB408E20BEBFD
:100FDD00B448B97833E204F2E1587832E2240212CF
:0A0FED0013D0782EE22418F2E12D53
:010FF70022D7
:0F19D400D291D290121A34C291121A34C29022B8
:0C1A0C00C291D290121A34D291021A3406
:0E19F100A2009291D290121A34C290021A34BF
:0D19FF00D290121A34A291C290121A342212
:0418EC00782AEFF275
:1018F000E408F2782AE2FF25E0F29291D290121ADF
:1019000034C290121A34782BE204F2E2C3940840F5
:04191000E20219FFD7
:10180000E4782AF2D29118F2782AE2FF25E0F2D2A7
:1018100090121A34782AE2FFA291E433FEEF4EF2DE
:10182000C290121A347829E204F2E2C3940840D834
:04183000782AE2FF31
:011834002291
:1017DC007828EFF208EDF21219D47F1A1218EC786F
:1017EC0028E2FF1218EC7829E2FF1218EC021A0C0E
:101795001219D47F1A1218ECE4FF1218EC1219D49E
:1017A5007F1B1218ECE47828F21218007828E2FE64
:1017B5002416F8EFF2EEB40504D2008002C200123E
:1017C50019F17828E204F2E2C3940640DC121A0CFF
:0717D5007F057E000219747C
:101958007D0D7F091217DC7D017F0B1217DC7D409E
:0C1968007F201217DC7D017F210217DCBC
:10186600A1E3B1B100A1E3B6ABB1B100A1E3B6AB60
:1018760000A1E3B6ABC4CF00A1E3C4CF00A1E3CE81
:10188600F7C4CF00A1E3CEF700A1E3CEF7B1B100D4
:0E19B300881600000000000000008214FFF6FD
:1015D8007828E2FC08E2FDEC020330791D7B007AF2
:1015E8008078430202A17828E2FA08E2FB740278C4
:1015F80034F27D697C002279777B007A8078430217
:1016080002A1782AE2FC08E2FD08E2FE08E2FF22D5
:101618007987E4FBFA78420202A17AC079A87B00B4
:1016280078430202A17828E2FA08E2FB2279B4782A
:1016380041E4FBFA0202A1E4FBFA79A07842120025
:10164800FB0203691200FBE4FBFA7934784322E2D7
:091658002401F218E23400F22230
:070854007828EEF208EFF234
:10085B007834E4F2087482F2E408F208F27BB8FA16
:10086B007D69FC7F40FE1216D91215D81216356021
:10087B000250081215D8121622504912162DC39485
:10088B0064EA64809480401074031215F77F4E1253
:10089B000B167A187966212212162DC3940AEA6474
:1008AB00809480500D78347401F27D697C007F5AFE
:1008BB0080051215EE7F547E001216617BFF7A18AD
:1008CB00796621381215D8121635501C1215D8120C
:1008DB001618601440121215EE7F48120B167A1878
:1008EB00796B7D697F6021F51215D812161850436C
:1008FB001215D879E112161A6039403712162DC32A
:10090B009464EA64809480401478347403F27F4ECC
:10091B00120B0A7A1879727D697F7221F51215EE26
:10092B007F547E001216617BFF7A1879727D697F86
:10093B006C21F51215D879E178421216395017123D
:10094B0015D81215E3600F400D120AB07A1879779B
:10095B007D697F6621F51215D81215E35019121512
:10096B00D8794A1215E5600F400D120ACA7A187928
:10097B007E7D697F7221F51215D8794A12160150C6
:10098B00171215D81215FF600F400D120AB07A1806
:10099B0079837D697F6621F51215D81215FF501BDF
:1009AB001215D87A407992121626600F400D120A52
:1009BB00CA7A18798A7D697F72802F1215D87B00CD
:1009CB007A40799278431202A150221215D812164E
:1009DB0022601A401812162D78347403F27F4212DB
:1009EB000B0A7A18798F7D697F66120F1D7812E2D8
:1009FB00FB7A0024FAFFEA34FFFE08E2F924FAFD41
:100A0B00E434FFFCEB2406FBEA33FAE924067835E1
:100A1B00F2E43318F2E47836F208F21216D9782899
:100A2B00E2FE08E2FF7C017D681204E4AE04AF0530
:100A3B00E41203307BDB7A0F7949784012164C12A3
:100A4B000204782A12055512160A120E1B12163FB3
:100A5B007812EFF212160A120E0512031A12163F33
:100A6B007813EFF218E22478FEF2EF247808F2FD07
:100A7B00EEFF7E007C007B007AF81219147812E2EC
:100A8B00FF08E2FD783174F8F208E4F27B01120AF8
:100A9B00E47B02120AE47B03120AF77B04120AF7C7
:050AAB007B05021000B4
:100AB0007828E2FA08E2FB78347403F27D697C005E
:100AC0007F427E001216617BFF227828E2FA08E25C
:100AD000FB78347403F27D697C007F4E7E00121631
:100AE000617BFF221210007812E2FF08E2FD7831EC
:100AF00074F8F208E4F2221210007812E2FF08E221
:100B0000FD783174F8F208E4F2227D697C007E0001
:0E0B10001216617BFF227E001216617BFF220F
:10124900E4781EF208F208F208F208F208F208122D
:10125900056100000000120B1E7834E4F20874F0F6
:10126900F2E408F208F27BF0FAFDFCFFFE1216D94F
:1012790012195874FF7831F208F27B5A7D787F7819
:101289001210001217957817E2FE18E2FDEDFF78AB
:101299001EEEF208EFF2AC06AD077819E2FE18E28D
:1012A900FBEE7820F2EB08F2D3ED94FFEC64809426
:1012B900FF4005781F121657D37821E294FF18E2F0
:1012C900648094FF40040812165778201215DAC07A
:1012D90004C005C006C007781E1215DA782C12055D
:1012E90055D007D006D005D0041214B07BE07A2E71
:1012F9007965784212164C12000A7824120555783D
:101309002412160C1203697814E2FC08E2FDC3EFFB
:101319009DFFEE9CFE121A18D3EF9403EE6480949D
:10132900805002418C782412160C1203697814EE4D
:09133900F208EFF2120854418C95
:100003000203D5E86480F8E933E83360110460F053
:10001300ED33EC337009E8FCE9FDEAFEEBFF220463
:1000230060DED3EB9FEA9EE99DE8C2E78CF0C2F75E
:1000330095F0400CE8CCF8E9CDF9EACEFAEBCFFB2A
:100043001203A085D0F05804700320D5B3E80470E0
:10005300075002B2D50203DF92D5EC0460F7E4CC7B
:10006300C0E0C398F8603B94186008400DD0E0FBF3
:100073000203B7E4FBFAC9FC8028E830E406E4C9CC
:10008300FBE4CAFCE830E305E4C9CACBFCE8540747
:100093006010F8C3E913F9EA13FAEB13FBEC13FC52
:1000A300D8F130F52FC3E49CFCEF9BFFEE9AFEEDF5
:1000B30099FDD0E0FBEF4E4D4C701222DB0302039F
:1000C300DCEC2CFCEF33FFEE33FEED33FDED30E7DC
:1000D300EB0203B7EF2BFFEE3AFEED39FDD0E0FB69
:1000E30050130BBB00030203DFED13FDEE13FEEF12
:0800F30013FFEC13FC0203B73C
:1000FB00EC4D6011E8497017ED33EC3304600DE4FF
:10010B00FCFFFEFD22E933E8330470F80203D5123D
:10011B0003A058046009E4CC24815006285009023E
:10012B0003DF2840030203DCC0E0EB4A7044B980D4
:10013B0006D0E0FB0203CBEF4E701CBD8008EBFF3B
:10014B00EAFEE9FD80EBE98DF0A4FEE5F00201E4A7
:10015B00E9CDF9EAFEEBFFEF89F0A4FCE5F0CE89DF
:10016B00F0A42EFFE435F0CD89F0A42DFEE435F09C
:10017B008067EF4E7005BD80D780C3EF8BF0A4ACCA
:10018B00F0EE8BF0A42CFCE435F0F8EF8AF0A42C05
:10019B00E5F038FCE433CB8DF0A42CFCE5F03BF818
:1001AB00EE8AF0A42CFCE5F038F8E433CF89F0A408
:1001BB002CFCE5F038CF3400CE89F0A42FFFE5F00E
:1001CB003EFEE433C98DF0A42EFEE5F039CD8AF066
:1001DB00A42FFFE5F03EFEE43DFD33D0E0FB5007DE
:1001EB000BBB000F0203DFEC2CFCEF33FFEE33FEF7
:0601FB00ED33FD0203B725
:100201000203DFEC5D046005E8590470030203D5C5
:100211001203A0580460F6EC4860F2EC7004FDFE95
:10022100FF22C860DB2481C85009C39860025006D0
:100231000203DC9850CAF582E9294B4A7005AB826A
:100241000203CB75F0007C1A7880C3EF9BEE9AED28
:1002510099400DC3EF9BFFEE9AFEED99FDE842F048
:10026100DC23ACF0D0E0FFD0E0FED0E0FDAB82209B
:10027100E7101BEB60BAEC2CFCEF33FFEE33FEED25
:1002810033FD0203B7E803F830E705C0F075F0006D
:10029100EF2FFFEE33FEED33FD40B830E7C280AA09
:1002A10074F8CC6480CCC86480C8F58204604FC304
:1002B100EB9FF5F0EA9E42F0E99D42F0E89C45F0A3
:1002C100603C501DE5825FFFE582D313CB5BCBF42D
:1002D1002B5582FB50280ABA002409B90020088056
:1002E1001DE5825BFBE582D313CF5FCFF4C3132FF0
:1002F1005582FF50090EBE00050DBD00010CC3EB78
:100301009FF5F0EA9E42F0E99D42F0E89C45F060DD
:0903110007CC4820E701B3EC22FF
:10031A00ED33EC33600A047003BD8004ECB2E7FCF1
:01032A0022B0
:10032B0075F020800E75F010800575F0087D007E4D
:10033B00007F003392D530D50312051AEC334010F1
:10034B00EF33FFEE33FEED33FDEC33FCD5F0ED2256
:0E035B00E5F0247EA2D513CC92E7CDCEFF2292
:10036900EDD2E7CD33EC3392D524814006E4FFFE8C
:10037900FDFC22FCE4CFCECDCC24E0501174FF80EB
:10038900EDC3CC13CCCD13CDCE13CECF13CF047088
:07039900F030D5DE02051A69
:1014B0007828120555782CE2FB08E2F908E2FA08D0
:1014C000E2CBF8E8C0E07828E2FC08E2FD08E2FEA2
:1014D00008E2FFD0E0F81202041211487828120541
:1014E00055782CE230E7577828E2FC08E2FD08E264
:1014F000FE08E2FFECC0E0EDC0E0EEC0E0EFC0E0CF
:10150000E4FFFEFDFC7828E2FB08E2F908E2FA08B5
:10151000E2CBF81202A17BDB600250087A0F794916
:10152000784080067A0F794978C0D0E0FFD0E0FE9D
:10153000D0E0FDD0E0FC12000A782812055578288A
:0C154000E2FC08E2FD08E2FE08E2FF22E7
:100DBD003A70FA83BCAAE9E43E81E0F8BF9DE9E60A
:100DCD003F80000039283C1ABB9969663DA335E385
:100DDD00BF255DE73FC90FDB418DDBCCC44936EE46
:100DED0045C9913FC5B0F83D3F800000C317F534AC
:100DFD00452FFA73C60AFDDD120E9E04A2E1920084
:100E0D001420E015900DBD74041203EA8020120E1B
:100E1D009E30E102B20020E0EB782E120555900DC8
:100E2D00D174041203EA782E1205381200FBED4C32
:100E3D006007300004EC6480FC22120E9EC0E07846
:100E4D002E120555900DF574031203EA782E120536
:100E5D00381200FB782EE2CCF208E2CDF208E2CE99
:100E6D00F208E2CFF2900DE574031203EAD0827816
:100E7D002E120538E58230E007120204B20080AE72
:100E8D00EFCBFFEECAFEEDC9FDECC8FC12020480EB
:100E9D009DED33EC547FCC33920024605007D0E0AD
:100EAD00D0E00203D57B837AF97922783E1200FBDC
:100EBD00EDF933ECF83324815011EFFBEEFA120308
:100ECD006912032BECB2E7FC12000AED33EC336030
:100EDD002F2403F8C313FCED92E7FDE82481E450C1
:100EED001FECF8EDF9EEFAEFFB120369EF04C2E027
:100EFD00FCF582120335ECB2E7FC12000AE5820321
:100F0D00FAED33EC3360071413FCED92E7FDEA22A2
:1003A000E9D2E7C933E833F892D5EDD2E7CD33ECA3
:0703B00033FC5002B2D5221C
:1003B700EC30E7100FBF000C0EBE00080DBD0004A7
:1003C7000BEB6014A2D5EB13FCED92E7FD2274FF53
:1003D700FCFDFEFF22E480F8A2D574FF13FC7D80AC
:0303E700E480EFC0
:1003EA00C0E0EFFBEEFAEDF9ECF81200FBD0E0F515
:1003FA00F0EFFBEEFAEDF9ECF8120528A3A3A3A39C
:10040A00E8C0E0E9C0E0EAC0E0EBC0E0C0F01200FA
:10041A00FB120545A3A3A3A312000AD0F0D0E0FB68
:0D042A00D0E0FAD0E0F9D0E0F8D5F0D4220F
:10112800BE1249253E4CCCCDBEAAAAAB3F800000DA
:101138003E7ADBB03EED63383F24BC7D3F490FDB90
:10114800ED33ECC2E7CC339200B4FF13ED547F606B
:10115800030203D57FDB7E0F7DC97C3F02123CC2B0
:1011680001C3947F401E7007EDD2E794904015EFBD
:10117800FBEEFAEDF9ECF87F007E007D807C3F12F3
:101188000204D201ED33EC33248430E705E4C0E0F7
:10119800806C04FAEDD2E754F0C333DAFD54073417
:1011A800002323C0E0CCC0E0F8EDC0E0F9EEC0E0D9
:1011B800FAEFC0E0FBE4120335EC24FEFC88F0787B
:1011C80030120555A8F01200FB7B007A0079807870
:1011D8003F12000A7830E2B2E7CCF208E2CDF2081A
:1011E800E2CEF208E2CFF2D0E0FBD0E0FAD0E0F9AC
:1011F800D0E0F812000A783012053812020478306C
:1012080012055590112874031203EA783012053834
:101218001200FBD0E0600F2434F582E43411F5832A
:1012280012054512000A30010B7BDB7A0F79C97869
:10123800BF12000AED33EC336006ECA20092E7FC23
:011248002283
:0300000002154C9A
:0C154C00787FE4F6D8FD7581200215932D
:10043700BB010689828A83E0225002E722BBFE02C3
:09044700E32289828A83E49322F6
:10045000BB010CE58229F582E5833AF583E0225061
:1004600006E92582F8E622BBFE06E92582F8E222AB
:0D047000E58229F582E5833AF583E49322C5
:10047D00EF8DF0A4A8F0CF8CF0A428CE8DF0A42E93
:02048D00FE224D
:10048F00BC000BBE0029EF8DF084FFADF022E4CC51
:10049F00F875F008EF2FFFEE33FEEC33FCEE9DEC1A
:1004AF00984005FCEE9DFE0FD5F0E9E4CEFD22ED60
:1004BF00F8F5F0EE8420D21CFEADF075F008EF2FAA
:1004CF00FFED33FD4007985006D5F0F222C398FD9B
:0504DF000FD5F0EA2238
:1004E400C2D5EC30E709B2D5E4C39DFDE49CFCEE33
:1004F40030E715B2D5E4C39FFFE49EFE12048FC318
:10050400E49DFDE49CFC800312048F30D507C3E412
:060514009FFFE49EFE22A1
:0E051A00C3E49FFFE49EFEE49DFDE49CFC22F2
:10052800E493FC740193FD740293FE740393FF2219
:0D053800E2FB08E2F908E2FA08E2CBF82243
:10054500E493F8740193F9740293FA740393FB220C
:0C055500ECF208EDF208EEF208EFF222E2
:10056100D083D082E493F208740193F20874029369
:09057100F208740393F2740473A0
:0C1A1800EE30E707C3E49FFFE49EFE22CF
:10155800021249E493A3F8E493A34003F68001F24E
:1015680008DFF48029E493A3F85407240CC8C33394
:10157800C4540F4420C8834004F456800146F6DF63
:10158800E4800B01020408102040809019A8E47E32
:10159800019360BCA3FF543F30E509541FFEE49358
:1015A800A360010ECF54C025E060A840B8E493A31F
:1015B800FAE493A3F8E493A3C8C582C8CAC583CA4A
:1015C800F0A3C8C582C8CAC583CADFE9DEE780BE02
:0119C1000025
:00000001FF
